:1000000012C050CA2BC02AC0B5CAB5C927C026C065
:10001000A1C9A9C823C065C721C03AC61FC01EC058
:1000200022CB57CA1BC011241FBECFE5D4E0DEBFD0
:10003000CDBF10E0A0E6B0E0EAECFBE102C0059025
:100040000D92A837B107D9F713E0A8E7B0E001C0D7
:100050001D92A03AB107E1F746D4B5CDD1CF40917A
:10006000780080916400841710F4AB9A482F209197
:100070007A0030917B00293C3105C8F01BBC1ABCCA
:1000800019BC18BC13BC82B3877C82BBAB9A80912D
:100090009003909191030196909391038093900324
:1000A0002150304030937B0020937A000895842FB4
:1000B00090E09BBD8ABD99BD88BD43BD0895E4E82D
:1000C000F3E080917A0090917B0090938503809378
:1000D000840380917D0080938603138280918B003E
:1000E00090918C0090938903809388038091A50060
:1000F0009091A60090938B0380938A0383B580939D
:100100008C03118608951BBC1ABC19BC18BC13BC07
:1001100091E09FBD81E485BD8EE087BB88B3817F80
:1001200088BB9EBD089592B7980F82B7891B87FD43
:10013000FCCF089501C001970097E9F780E008958A
:100140008091800090918100892B09F059C08091A5
:10015000820090918300892B99F0909190008FEF0D
:10016000989FC001112468EC70E086DB70938F00CB
:1001700060938E001092670089B78F7D89BF31C070
:100180008091A900853178F181E08093670020910A
:10019000A5003091A60041E02D32340730F4293C0F
:1001A000310540F42B30310538F410928F00109255
:1001B0008E0017C028EC30E08CEF90E0AC01249F5B
:1001C000C001259F900D349F900D1124885D9940AA
:1001D00064EB70E051DB6D5F7F4F70938F00609335
:1001E0008E00AB9819C080918E0090918F0000977F
:1001F00029F0019790938F0080938E00AB9A0CC0EA
:100200008091950380938E0010928F00109267006A
:10021000AB9889B78F7D89BF80918E0090918F00B8
:100220008F3F910539F030F08FEF90E090938F0081
:1002300080938E0080918E000895CF93DF93EC0120
:1002400017C05FD821978091B5029091B602885867
:100250009F4F20917A0030917B008217930740F4E2
:1002600082B3877C82BB88B3817F88BB81E003C077
:10027000209739F780E0DF91CF9108951F93182FD1
:10028000789409C0AB9A8CE291E0D2D7AB988CE21B
:1002900091E0CED711501123A9F788EE93E0C8D78B
:1002A0001F910895AF92BF92DF92EF92FF920F934A
:1002B0001F93DF93CF93CDB7DEB727970FB6F89490
:1002C000DEBF0FBECDBFDE011196E8E6F0E087E0AD
:1002D00001900D928150E1F7AB9880916600FE018C
:1002E000E80FF11D818190E02CE231E0AC01429FEA
:1002F000C001439F900D529F900D112499D71092E9
:10030000B1004398F8948AE0DFD582B3877C82BB42
:100310001BBC1ABC19BC18BC13BC81E08FBD81E4A6
:1003200085BD8EE087BB88B3817F88BB10927C003F
:1003300082E390E082DF80917C008093B50210928E
:10034000B60210927B0010927A008CB1803231F0AC
:1003500038EEE32E33E0F32E82E306C08FE5B4D50A
:10036000EE24EA94FE2C88E210927B0010927A0030
:1003700000E010E0A82EBB24939A81E090E05DDFBE
:1003800082B3877C82BB88B3817F88BBC39A81E0BC
:1003900090E053DF82B3877C82BB88B3817F88BBC8
:1003A0008091B5029091B6028A0D9B1D20917A0032
:1003B00030917B008217930738F00F5F1F4F0E15A7
:1003C0001F05D0F2DD240AC084E37ED582B3877C8A
:1003D00082BB88B3817F88BB24E0D22E80E197E284
:1003E00000C001975FEF8F3F9507D9F710927B0010
:1003F00010927A0000E010E0949A81E090E01DDF16
:1004000082B3877C82BB88B3817F88BBC29A81E03C
:1004100090E013DF82B3877C82BB88B3817F88BB87
:100420008091B5029091B6028A0D9B1D20917A00B1
:1004300030917B008217930730F00F5F1F4F0E152E
:100440001F05D0F20AC085E33FD582B3877C82BB0B
:1004500088B3817F88BB95E0D92E10927B001092E3
:100460007A0080E197E200C001972FEF8F3F92075B
:10047000D9F700E010E0959A81E090E0DEDE82B3EB
:10048000877C82BB88B3817F88BBC19A81E090E082
:10049000D4DE82B3877C82BB88B3817F88BB8091A6
:1004A000B5029091B6028A0D9B1D20917A00309181
:1004B0007B008217930730F00F5F1F4F0E151F054B
:1004C000D0F20BC086E300D582B3877C82BB88B3B1
:1004D000817F88BB86E0D82E02C0DD2019F08D2DEB
:1004E000CDDEFDCF80918D0087B982B3877C82BB42
:1004F00088B3817F88BB949A959A10927B00109262
:100500007A0000E010E0FF24C39A80E0E5D6C397AC
:1005100018F041E0F42A02C05EEFF52218BA8CE22E
:1005200091E000C001972FEF8F3F9207D9F70F5F3F
:100530001F4F0937110541F782B3877C82BB88B30F
:10054000817F88BB939A959A00E010E0C29A81E07F
:10055000C3D6C39718F042E0F42A02C05DEFF5223B
:1005600018BA8CE291E000C001972FEF8F3F9207FD
:10057000D9F70F5F1F4F0538110541F782B3877C0C
:1005800082BB88B3817F88BB939A949A00E010E085
:10059000C19A82E0A1D6C39718F044E0F42A02C0C1
:1005A0005BEFF52218BA8AE491E000C001972FEFC3
:1005B0008F3F9207D9F70F5F1F4F0F36110541F795
:1005C00082B3877C82BB88B3817F88BB939A00E02B
:1005D00010E0C29A80E080D68138910518F047EF8C
:1005E000F42202C058E0F52A18BA8AE491E000C06B
:1005F00001972FEF8F3F9207D9F70F5F1F4F0937F2
:10060000110539F7959A00E010E0C29A82E064D6AD
:100610008138910518F04FEDF42202C050E2F52A1E
:1006200018BA88E691E000C001972FEF8F3F92073C
:10063000D9F70F5F1F4F0538110539F782B3877C53
:1006400082BB88B3817F88BB82B3877C82BB88B33F
:10065000817F88BB949A00E010E0C19A81E03CD68B
:100660008138910518F04FEEF42202C050E1F52ACE
:1006700018BA88E691E000C001972FEF8F3F9207EC
:10068000D9F70F5F1F4F0F36110539F782B3877CFB
:1006900082BB88B3817F88BB789480916600FE011D
:1006A000E80FF11D218183E090E0821B91092CE28B
:1006B00031E0AC01429FC001439F900D529F900DCD
:1006C0001124B6D5F0FC04C081E48CB911E01DC042
:1006D000F1FC04C082E48CB912E017C0F2FC04C043
:1006E00083E48CB913E011C0F3FC04C081E68CB93B
:1006F00014E00BC0F4FC04C082E68CB915E005C020
:10070000F5FC06C083E68CB916E0812FB7DDFDCF7E
:1007100080E0B4DD8EE2D8D327960FB6F894DEBF22
:100720000FBECDBFCF91DF911F910F91FF90EF9042
:10073000DF90BF90AF9008956F927F929F92AF929B
:10074000BF92CF92DF92EF92FF920F931F93CF93BE
:10075000DF93982E1092B100439885E090E090933B
:100760007900809378007BDC0FD78CE291E04CD548
:100770009093B4028093B30209C0C3D580917A00EC
:1007800090917B008937910508F05CC08091B3029D
:100790009091B40243D5882381F39092780010920F
:1007A00079005CE2A52E51E0B52EC12CD12CC6E813
:1007B000D3E046E0642E712C6C0E7D1EEE24FF24E7
:1007C000870180916F00882311F46CD201C06ED430
:1007D00082B78C59982F82B7891B87FDFCCF08946C
:1007E000E11CF11C011D111DEA14FB040C051D0583
:1007F00040F380917A0090917B00909385038093E1
:10080000840380917D0080938603198280918B0000
:1008100090918C0090938903809388038091A50028
:100820009091A60090938B0380938A0383B5809365
:100830008C03F301118265D580917A0090917B0041
:10084000CD97A8F082B3877C82BB1BBC1ABC19BCB5
:1008500018BC13BC81E08FBD81E485BD8EE087BBF1
:1008600088B3817F88BB8AE009DD80E02EC0C601A5
:10087000B5012FE030E040E050E012D820953095EF
:1008800040955095A20EB31EC41ED51EF9E1AF16B9
:10089000B104C104D104C0F077D68091AF008F5F5E
:1008A0008093AF008091AF0066E0DAD79093AF00FD
:1008B000DCD49092780010927900D1DB449B7ECFFB
:1008C00082B3805882BB7ACF81E0DF91CF911F91B4
:1008D0000F91FF90EF90DF90CF90BF90AF909F90DF
:1008E0007F906F9008955F926F927F928F929F9208
:1008F000AF92BF92CF92DF92EF92FF920F931F932E
:10090000CF93DF9388E084BB85BB8AE381BB12BAB7
:100910008EE087BB81E388BB88B3806C88BBB69BC5
:1009200006C0B79B02C081E007C082E005C0B79B4C
:1009300002C083E001C084E0809366008BE0809376
:10094000B200879B06C08CE08093B20080EC80935D
:100950008D008AEB81BBC4D34ED47894D4DB80E580
:10096000B0D5EBD485E690E04FD486E690E04CD449
:1009700087E690E049D49093B4028093B3028EEF5F
:1009800090E042D46C018DEE93E03ED4EC018EEE0B
:1009900093E03AD403C0D4DB882339F48091B302C6
:1009A0009091B4023BD48823B1F38091B2008C3093
:1009B00010F4979A01C097981092790010927800DD
:1009C0004EDB88E080BF81E087B98AE090E01CD4EC
:1009D0009093B4028093B30281E090E090938703F8
:1009E000809386031092A6001092A500A9DB8823AD
:1009F00009F458DC81E388BB10E0FF24F394F1E4B0
:100A0000EF2EEEE05E2E71E0672E712C6FE0862EE9
:100A1000912C01C0102F94DB809378001092790004
:100A20000091AF00011769F010926300109262000C
:100A30008AEF90E0E9D39093B4028093B3020091DF
:100A4000AF008091780090917900892BE1F41092A9
:100A5000880010926200C501E1D38823F1F0109262
:100A6000B1004398F092630082B3877C82BB1BBCC9
:100A70001ABC19BC18BC13BCFFBCE5BC57BA88B380
:100A8000817F88BB0AC080916300882311F0F092B7
:100A900088008CED95E0B8D35C01809163008823D9
:100AA00021F01092790010927800D9DA80916200DA
:100AB0008F5F80936200815009F0ACCF809163001A
:100AC000882341F08091B2008C3010F4979A01C0D5
:100AD000979817D4C601A2D38823A9F182E390E0A6
:100AE00093D36C0180917D00482F50E020917A00D3
:100AF00030917B004217530710F48F5F04C0241716
:100B0000350718F4815080937D00293C310548F069
:100B100080916400982F929596959770891B809389
:100B2000640080917D0090916400893738F09923AA
:100B300019F0915090936400AB9A05C09F3F19F053
:100B40009F5F90936400CE0169D3882391F08AE07F
:100B500090E05AD3EC018091890090918A009093A3
:100B60008C0080938B0010928A0010928900F09282
:100B700065008091B3029091B40250D3882331F084
:100B800080918B0090918C00892B29F080918800B6
:100B9000882309F43FCFF09263001092B10043988C
:100BA00084E690E031D39093B4028093B3028091B5
:100BB0008800882309F42ECFAB9810927C00109205
:100BC00088008AE0B9DD882309F45BC08091B20017
:100BD0008C3010F4979A01C097981092630080911E
:100BE000AF0081508093AF007092790060927800DE
:100BF00036DA88B18C7F88B9F092B10088B18A600A
:100C000088B984E190E000D39093B4028093B3025A
:100C10008091B3029091B40201D38823C9F39092DA
:100C20007900809278001BDA8CE291E0EDD290930B
:100C3000B4028093B30218C080917A0090917B0037
:100C4000CD9790F082B3877C82BB1BBC1ABC19BCC9
:100C500018BC13BCFFBCE5BC57BA88B3817F88BB06
:100C60008AE00CDBF09288008091B3029091B4028C
:100C7000D5D2882309F382E390E0C6D2EC0107E0E5
:100C8000C9CE5EDA882309F4C5CEF0928800C2CEC0
:100C90001F920F920FB60F9211240F900FBE0F905C
:100CA0001F9018955E9B24C080916F008823E1F40B
:100CB0008091A0009091A10001969093A100809353
:100CC000A000FC01E854FD4FE081ED3019F08436BE
:100CD000910539F41092A1001092A00081E0809358
:100CE0006F00589AECB908951092A1001092A000DC
:100CF00008951F93CF93DF93EC0170E0A22FB0E033
:100D0000119748C0E42FF0E0E25EFC4F30814F5F66
:100D1000E42FF0E0E25EFC4F50814F5FE42FF0E003
:100D2000E25EFC4F10814F5FE42FF0E0E25EFC4F8B
:100D300020814F5F842F90E08A179B0774F55D53E5
:100D4000FE01E70FF11D852F82958F703D53330F04
:100D5000330F382B3083613001F1912F9D537F5F2A
:100D6000FE01E70FF11D71505295507F892F869536
:100D70008695582B5083623081F063507E5FFE0170
:100D8000E70FF11D9295990F990F907C2D53922B9F
:100D900090837F5F662309F0B5CFDF91CF911F91DC
:100DA0000895DC0120E030E040E050E008C0FA01A6
:100DB000E854FD4F8081280F311D4F5F5F4F4A1768
:100DC0005B07A8F33F70C90136E0969587953A9581
:100DD000E1F7835CFD01E854FD4F808311962F738A
:100DE000235CFD01E854FD4F2083A754BD4F8DE0E7
:100DF0008C9310926F008091B8028CB90895CF93B4
:100E0000DF93EA01B22F93E29093B8026093B902A4
:100E10008093BA0263E070E0A0E04EC0FE01EA0FEA
:100E2000F11D9081AF5FB15019F430E040E00FC088
:100E3000FE01EA0FF11D4081AF5FB15011F430E0C7
:100E400006C0FE01EA0FF11D3081AF5FB150892F5E
:100E500086958695835CFB01E854FD4F8083242FA3
:100E600022952F70892F90E08370907054E0880F46
:100E7000991F5A95E1F7282B235CFB01E754FD4F9E
:100E80002083842F90E08F709070880F991F880FB7
:100E9000991F232F2295269526952370282B235CB6
:100EA000FB01E654FD4F20833F73335CFB01E554A7
:100EB000FD4F30836C5F7F4FBB2309F0AFCFCB0179
:100EC00070DFDF91CF9108951F93182F8A3011F4AE
:100ED0008DE0FADF5D9BFECF1CB980E090E01F91B2
:100EE00008951F920F920FB60F9211242F933F93E4
:100EF0004F935F936F937F938F939F93AF93BF9322
:100F0000CF93DF93EF93FF938CB180939100409147
:100F10009B00443610F010929A00509191005D3081
:100F200009F064C080919A00823009F05FC010928D
:100F30009A00A42FB0E0FD01E45EFC4F3081ED018A
:100F4000C35EDC4F288180919E0090919F00831B9F
:100F50009109821B91099F7090939F0080939E003E
:100F60009C0166E0369527956A95E1F7235C20930E
:100F70009D00982F9F73935C90939C00808128170D
:100F800009F080C08881981709F07CC040939900CF
:100F9000A25EBC4F5C9380912003823549F42CE023
:100FA00088E190E00FB6F894A89581BD0FBE21BDF1
:100FB0008091200389DF80912003843709F062C08B
:100FC0002091990083E990E066E043E092DEE091B1
:100FD0006600F0E0EE56FF4F80818093900084EF32
:100FE00091E090938300809382004CC080919A009E
:100FF0008130F9F0813020F0823009F041C024C006
:1010000080919100833239F480919200882319F401
:1010100081E080939A008091910080931E0381E08B
:1010200080939B008091910080939E0010929F007E
:1010300029C082E080939A00E42FF0E08091910033
:10104000E25EFC4F808309C0E42FF0E080919100C4
:10105000E25EFC4F8083443620F44F5F40939B0058
:1010600002C010929A002091910080919E00909170
:101070009F00820F911D90939F0080939E0002C05D
:1010800010929A00FF91EF91DF91CF91BF91AF91B4
:101090009F918F917F916F915F914F913F912F9190
:1010A0000F900FBE0F901F901895089580911C030C
:1010B00090911D03B3D0882391F080916F00882315
:1010C00071F084E46091B70242E853E022E197DED8
:1010D00082E390E099D090931D0380931C030895C0
:1010E00088E18AB9599A579A80E189B984E697E0EC
:1010F00060E070E0F7D388EC90E086D090931D0319
:1011000080931C038AE0E0DE82E4DEDE8CE4DCDE39
:101110008AE3DADE86E5D8DE80E3D6DE8EE2D4DE50
:1011200084E3D2DE81E3D0DE8AE0CEDE88E4CCDE6A
:1011300087E5CADE8AE3C8DE81E3C6DE8EE2C4DE6E
:101140008091B2008A5DC0DE8AE0BEDE81E4BCDE52
:1011500084E4BADE82E5B8DE8AE3B6DE809166001A
:10116000805DB2DE08951F920F920FB60F92112488
:101170008F939F93809194038F5F809394038091CA
:10118000A40081508093A4008F5F71F583E0809369
:10119000A4008091A2009091A30001969093A300D7
:1011A0008093A2008091800090918100009729F0A7
:1011B000019790938100809380008091A8008823FC
:1011C00031F08091A80081508093A80002C0109255
:1011D000A9008091820090918300009729F00197E7
:1011E00090938300809382009F918F910F900FBE08
:1011F0000F901F90189582E083BF89B7816089BFE7
:1012000089B7806489BF08952091A2003091A3001E
:1012100021503040280F391FC90108952091A200A4
:101220003091A300821B930B80709078892F0895D2
:101230002091A2003091A30021503040280F391F87
:101240008091A2009091A300A901481B590BCA01EB
:10125000807090789923A1F3089586EA86B98091E9
:101260008D00876087B9369A089527B190918D00D7
:10127000966097B910BE83ED86B9349A97B9369ABD
:10128000349BFECF27B984B195B120917A0030917B
:101290007B00A90163E0440F551F6A95E1F7421BEB
:1012A000530B880F991F880F991F480F591F83E010
:1012B000569547958A95E1F750937B0040937A00C5
:1012C00080917C0090E08417950710F440937C0097
:1012D00016B888E080BF089527B190918D00982BB3
:1012E00097B910BE83ED86B9349A97B9369A349B74
:1012F000FECF27B916B888E080BF24B135B1C90147
:10130000089586E0E9DF9C01220F331F220F331F6F
:10131000293C310510F028EC30E030937B0020931D
:101320007A0080917C0090E08217930710F420935C
:101330007C0016B888E080BF08958EB5806C8EBDA5
:101340008EB580648EBD89B7806289BF89B784609D
:1013500089BF08951F920F920FB60F9211248F9399
:101360008091A7008F5F8093A7008F910F900FBE91
:101370000F901F9018951F920F920FB60F92112485
:101380002F933F934F935F938F939F930EB406FEDB
:101390000FC01092A70086B597B59093AD008093CB
:1013A000AC008EB58F7B8EBD84E68093A8006FC0A5
:1013B0008EB580648EBD26B537B54091A70080916B
:1013C000AC009091AD00281B390B942F990F80E051
:1013D000280F391F85E0369527958A95E1F73093D8
:1013E000AB002093AA002851314030F488E191E00D
:1013F0009093AB008093AA004091AA005091AB005B
:10140000485151408091A5009091A60084179507FE
:1014100030F48091A5009091A60001960CC08091B7
:10142000A5009091A6004817590748F48091A5009F
:101430009091A60001979093A6008093A5008091BB
:10144000A5009091A6009C01220F331F220F331F8D
:10145000220F331F281B390B240F351F83E03695CD
:1014600027958A95E1F73093AB002093AA0030933B
:10147000A6002093A5008091A9008F3F29F08091BC
:10148000A9008F5F8093A90081E0809365009F9100
:101490008F915F914F913F912F910F900FBE0F90C1
:1014A0001F9018951F920F920FB60F9211248F93D1
:1014B0008AB78F7B8ABF8F910F900FBE0F901F90BE
:1014C000189590916600990F980F92B985EC86BF98
:1014D00008951F920F920FB60F9211248F939F932E
:1014E00081B190E0887F907080389105C9F0813893
:1014F000910534F4009791F18036910591F50AC079
:10150000883B9105B9F0883F910529F1883A91050A
:1015100041F510C086B7806886BF1092AE0023C028
:1015200083B18093950384EF91E090938100809341
:1015300080000EC08091AE00882339F480917D0038
:1015400083B981E08093AE0003C08091640083B9C9
:1015500086B7806807C086B7806986BF86B780690E
:1015600086BF85EC86BF9F918F910F900FBE0F9025
:101570001F9018951F920F920FB60F9211240F9083
:101580000FBE0F901F9018958091AF00823069F1C7
:10159000833030F4882369F0813009F063C017C0CC
:1015A000843009F43FC0843068F1853009F05AC0B6
:1015B0004BC081EA8FBD81E685BD88E087BB82B3E1
:1015C000877D82BB949A80918D00826038C081EAC9
:1015D0008FBD81E685BD88E087BB82B3877E82BBF5
:1015E000959A80918D0081601AC081EA8FBD81E655
:1015F00085BD84E087BB82B3877E82BB959A80914C
:101600008D001DC081EA8FBD81E685BD84E087BB6A
:1016100082B38F7C82BB939A80918D00826087B960
:101620004098089581EA8FBD81E685BD82E087BB41
:1016300082B38F7C82BB939A80918D00816087B941
:1016400088B1836088B9089581EA8FBD81E685BD40
:1016500082E087BB82B3877D82BB949A80918D00A4
:1016600087B9409808951F920F920FB60F921124D8
:10167000CF92DF92EF92FF920F931F932F933F939E
:101680004F935F936F937F938F939F93AF93BF938A
:10169000EF93FF9361EAF62E01E652E0C52E44E097
:1016A000D42E38E0E32E88B190E025E0969587951A
:1016B0002A95E1F7182F11708091AF00823009F45C
:1016C00050C0833030F4882371F0813009F0A5C018
:1016D00022C0843009F470C0843008F458C08530CA
:1016E00009F09BC080C0FFBC05BDE7BA112371F0B3
:1016F00082B3877E82BB959A809165008111B5DDAA
:10170000409880918D00816087B918C082B3877D31
:1017100082BB949A82C082B3877E82BB959A112342
:10172000E1F4FFBC05BDD7BA8091650081119DDD54
:1017300080918D0087B988B1836088B98091AF00AE
:101740008F5F8093AF008091890090918A0001960D
:1017500090938A008093890060C0FFBC05BDE7BA02
:101760005CC0FFBC05BDD7BA112361F082B38F7C8A
:1017700082BB939A80916500811177DD80918D0005
:10178000826029C082B3877E82BB959A46C082B3AD
:101790008F7C82BB939A112359F4FFBC05BDC7BA55
:1017A00080916500811161DD80918D008160C2CFE3
:1017B000FFBC05BDD7BA31C0FFBC05BDC7BA1123F8
:1017C00069F082B3877D82BB949A80916500811114
:1017D0004CDD80918D0087B94098B0CF82B38F7C6B
:1017E00082BB939A1AC082B3877D82BB949A1123DD
:1017F00089F4FFBC05BDE7BA80916500811135DD34
:1018000080918D00826087B988B1836088B9109219
:10181000AF0099CFFFBC05BDC7BA459903C01123DE
:1018200009F041CF459B03C0112309F43CCF10922E
:101830006500FF91EF91BF91AF919F918F917F9143
:101840006F915F914F913F912F911F910F91FF9059
:10185000EF90DF90CF900F900FBE0F901F901895D4
:10186000991B79E004C0991F961708F0961B881FF2
:101870007A95C9F780950895AA1BBB1B51E107C053
:10188000AA1FBB1FA617B70710F0A61BB70B881F10
:10189000991F5A95A9F780959095BC01CD0108959F
:1018A000A1E21A2EAA1BBB1BFD010DC0AA1FBB1F64
:1018B000EE1FFF1FA217B307E407F50720F0A21BD6
:1018C000B30BE40BF50B661F771F881F991F1A9443
:1018D00069F760957095809590959B01AC01BD016D
:1018E000CF0108950F931F93CF93DF938C01EB01EA
:1018F000009731F46115710519F420E030E037C02C
:1019000081E090E06EE070E038D0FC019C0100972F
:1019100071F180E88383209771F0D387C28781E8D3
:1019200083838091960390919703892B21F4F09300
:101930009703E093960301151105C9F011870087FD
:101940008381826083838091980390919903892B8E
:1019500071F4F0939903E093980380919A03909126
:101960009B03892B21F4F0939B03E0939A03C90115
:10197000DF91CF911F910F9108950F931F93CF93F4
:10198000DF93689F8001699F100D789F100D1124CF
:10199000C8010DD0EC01009721F060E070E0A801D3
:1019A0000BD1CE01DF91CF911F910F910895CF936D
:1019B000DF93BC018230910510F462E070E0A091E9
:1019C0009E03B0919F03ED01E0E0F0E040E050E0C5
:1019D00021C0888199818617970769F48A819B8144
:1019E000309719F09383828304C090939F03809370
:1019F0009E03FE0134C06817790738F4411551057C
:101A000019F08417950708F4AC01FE018A819B81C7
:101A10009C01E9012097E9F641155105A9F1CA0198
:101A2000861B970B049708F4BA01E0E0F0E02AC0A7
:101A30008D919C91119784179507F9F46417750798
:101A400081F412968D919C911397309719F093839E
:101A5000828304C090939F0380939E03FD0132967E
:101A60004FC0CA01861B970BFD01E80FF91F619358
:101A7000719302978D939C9343C0FD018281938162
:101A80009C01D9011097A1F680919C0390919D0330
:101A9000892B41F4809173009091740090939D0381
:101AA00080939C034091750050917600411551053B
:101AB00041F44DB75EB78091710090917200481B60
:101AC000590B20919C0330919D0324173507B0F4E6
:101AD000CA01821B930B8617970780F0AB014E5FFC
:101AE0005F4F8417950750F0420F531F50939D038B
:101AF00040939C03F9016193719302C0E0E0F0E030
:101B0000CF01DF91CF910895CF93DF93009709F430
:101B100050C0EC0122971B821A82A0919E03B091C3
:101B20009F03109709F140E050E0AC17BD0708F1A2
:101B3000BB83AA83FE0121913191E20FF31FAE17FF
:101B4000BF0779F48D919C911197280F391F2E5F53
:101B50003F4F3983288312968D919C9113979B83D5
:101B60008A834115510571F4D0939F03C0939E035E
:101B700020C012968D919C911397AD01009711F0A2
:101B8000DC01D3CFFA01D383C28321913191E20FDB
:101B9000F31FCE17DF0769F488819981280F391F59
:101BA0002E5F3F4FFA01318320838A819B8193838B
:101BB0008283DF91CF910895DC0101C06D93415084
:0A1BC0005040E0F70895F894FFCFBD
:101BCA000A000101FF0101010000000101020201F6
:081BDA00642000A003000000DC
:00000001FF
